:03000000020200F9
:03000B00020100EF
:10010000C0E0C0D0758CD8758AF0053CE53CB4647D
:1001100021753C000530E530B43C177530000531E1
:10012000E531B43C0D7531000532E532B418037584
:070130003200D0D0D0E03214
:1002000075816F7530007531007532007535007578
:100210003800753B00753D05753E00754100753C25
:1002200000D2A3C2A4D2A5758901758CD8758AF0B5
:10023000D2A9D2AFD28C1206811204FC12049F12F2
:100240000273120638E5506024B431051203E980C8
:1002500019B43205755301800EB43305755302800D
:1002600006B434097553031204231204FC12073335
:1002700002023CE53E6018E532B53F13E531B5407A
:100280000EE530B40009753E007553001202E4E536
:10029000356018E532B53313E531B5340EE530B4C9
:1002A00000097535007553011202E4E5386018E560
:1002B00032B53613E531B5370EE530B4000975387F
:1002C000007553021202E4E53B6018E532B53913BC
:1002D000E531B53A0EE530B40009753B00755303BE
:1002E0001202E42275410012067390076D1206F3A4
:1002F000E55324301206D61206ED9007771206F366
:10030000C2A3D2A4120351E550700BD2A3C2A4120F
:100310000351E55060D1D2A3C2A4B4410412039AA0
:1003200022B4440D1206739007871206F312073D9C
:1003300022120365E55260AF12067390078712061A
:10034000F31206ED9007971206F312073D75410070
:100350002275441E75500012071F120638E55070B2
:1003600003D544F322F550755200E541B40008E589
:1003700050B4311A054122B40108E550B4320F05DA
:100380004122E550B4310775520175410022754193
:1003900000E550B4310375410122120549D2A3C2D0
:1003A000A41206739007A71206F31206ED9007B782
:1003B0001206F312052085503DE531253DF540E557
:1003C00032F53FE540C3943C400FF540053FE53F23
:1003D000B418F0753F000203C3753E011206739016
:1003E00007C71206F312073D221205491206739041
:1003F00007D71206F31206ED9007E71206F312056F
:10040000208550321206ED9007F71206F3120520F0
:100410008550317530001206739008071206F312EA
:10042000073D221205491206739008171206F3E5DC
:100430005324301206D61206ED9007E71206F31287
:100440000520E553B40106855033020459B4020671
:100450008550360204598550391206ED9007F7127F
:1004600006F3120520E553B40109855034753501B2
:10047000020485B402098550377538010204858568
:10048000503A753B011206739008231206F3E553A8
:1004900024301206D690082A1206F312073D2212C3
:1004A00006E79007671206F3E53212050F743A1259
:1004B00006D6E53112050F743A1206D6E53012055C
:1004C0000F1206ED74411206D6743A1206D6E535BF
:1004D000600474318002742D1206D6E5386004740D
:1004E000328002742D1206D6E53B6004743380021C
:1004F000742D1206D69008391206F3221206739054
:1005000007471206F31206ED9007571206F32275FD
:10051000F00A8424301206D6E5F024301206D622E2
:1005200012055D120541C39430F55112055D1205A7
:1005300041C39430F55075F00AE551A42550F550AB
:1005400022E5501206D6E55022C2B0C2B1C2B2C2F4
:10055000B300E5B054F0B4F0F01207292275B0F002
:10056000C2B0D2B1D2B2D2B300E5B054F0B4F027E9
:10057000D2B0C2B100E5B054F0B4F043D2B1C2B2CF
:1005800000E5B054F0B4F05FD2B2C2B300E5B054AD
:10059000F0B4F07B02055D120729E5B054F0B4E039
:1005A00006755031020634B4D00675503202063456
:1005B000B4B0067550330206347550410206341249
:1005C0000729E5B054F0B4E006755034020634B49F
:1005D000D006755035020634B4B0067550360206A2
:1005E00034755042020634120729E5B054F0B4E0E5
:1005F00006755037020634B4D006755038020634FA
:10060000B4B00675503902063475504302063412F0
:100610000729E5B054F0B4E00675502A020634B458
:10062000D006755030020634B4B006755023020669
:100630003475504412054922755000C2B0D2B1D26F
:10064000B2D2B300E5B054F0B4F025D2B0C2B100DC
:10065000E5B054F0B4F019D2B1C2B200E5B054F034
:10066000B4F00DD2B2C2B300E5B054F0B4F0012240
:1006700002055D74011206C512071574801206C5C5
:100680002212072974301206C5120715743012069B
:10069000C51206FE74301206C51206FE7438120624
:1006A000C51206FE74081206C51206FE7401120673
:1006B000C512071574061206C51206FE740C120642
:1006C000C51206FE22F590C2A0C2A1D2A21206FE59
:1006D000C2A212070B22F590D2A0C2A1D2A212068A
:1006E000FEC2A21206FE2274801206C52274C01237
:1006F00006C522E49360061206D6A380F622754250
:10070000FAD542FD7542FAD542FD22754302120622
:10071000FED543FA227543051206FED543FA22752B
:10072000430A1206FED543FA227543141206FED57B
:1007300043FA22754414120715D544FA227544C8A9
:10074000120715D544FA22313A54696D6520323AC0
:10075000416C6D31202000333A416C6D3220343AC7
:10076000416C6D3320200054696D653A00212120D1
:10077000414C41524D200050617373436F64652CAE
:1007800020413D536E7A00416C61726D2053746F4D
:100790007070656421200053657120436F7272652B
:1007A0006374203A292000536E6F6F7A6520447578
:1007B000726174696F6E004D696E732830312D352A
:1007C00039293A20202000536E6F6F7A656421200A
:1007D000202020202020002D2D2D20536574205412
:1007E000696D65202D2D00486F75722830302D32CF
:1007F00033293A202020004D696E202830302D35D5
:1008000039293A2020200054696D652053657420F1
:100810004F4B212020200053657420416C61726D84
:10082000202300416C61726D200020536574204FBD
:100830004B212020202020200020202020202020AC
:0308400020200075
:00000001FF
